:100000000C9463000C948B000C948B000C94AF0741
:100010000C94AF070C94AF070C948B000C948B00DE
:100020000C948B000C948B000C948B000C948B0024
:100030000C948B000C948B000C948B000C948B0014
:100040000C9446060C948B000C948B000C948B0043
:100050000C948B000C948B000C948B000C948B00F4
:100060000C9490060C948B000000000024002700E4
:100070002A0000000008000201000003040700003D
:1000800000000000000000000000230026002900FE
:1000900000000000250028002B00040404040404D0
:1000A0000404020202020202030303030303010227
:1000B00004081020408001020408102001020408F6
:1000C00010202708B60E11241FBECFEFD8E0DEBFE8
:1000D000CDBF23E0A4E0B2E001C01D92AA35B20773
:1000E000E1F712E0A0E0B1E0E0ECF0E202C0059040
:1000F0000D92A430B107D9F710E0C2E6D0E004C0F9
:100100002197FE010E94140FC136D107C9F70E9442
:10011000A6080C9453100C940000089508950895B7
:10012000AF92BF92CF92DF92EF92FF920F931F9305
:10013000CF93DF936C017B018B01040F151FEB0143
:100140005E01AE18BF08C017D10759F06991D601FA
:10015000ED91FC910190F081E02DC6010995892B6C
:1001600079F7C501DF91CF911F910F91FF90EF902B
:10017000DF90CF90BF90AF900895833081F028F446
:10018000813099F08230A9F008958730A9F0883045
:10019000C9F08430B1F4809180008F7D03C08091DC
:1001A00080008F7780938000089584B58F7784BD19
:1001B000089584B58F7DFBCF8091B0008F778093B9
:1001C000B00008958091B0008F7DF9CFCF93DF9379
:1001D000282F30E0F901EE58FF4F8491F901E255E4
:1001E000FF4FD491F901E656FF4FC491CC23A1F003
:1001F00081110E94BD00EC2FF0E0EE0FFF1FEA57C7
:10020000FF4FA591B491EC91ED2381E090E009F4CA
:1002100080E0DF91CF91089580E090E0FACF1F93C6
:10022000CF93DF93282F30E0F901EE58FF4F8491F0
:10023000F901E255FF4FD491F901E656FF4FC49101
:10024000CC23A9F0162F81110E94BD00EC2FF0E005
:10025000EE0FFF1FE057FF4FA591B4918FB7F894B1
:10026000EC91111108C0D095DE23DC938FBFDF9194
:10027000CF911F910895DE2BF8CFCF93DF9390E0BD
:10028000FC01E255FF4F249186569F4FFC0184915B
:100290008823C9F090E0880F991FFC01E859FF4FAF
:1002A000A591B491FC01E057FF4FC591D491611124
:1002B0000DC09FB7F8948C91209582238C938881F0
:1002C000282328839FBFDF91CF910895623051F496
:1002D0009FB7F8943C91822F809583238C93E8817B
:1002E0002E2BEFCF8FB7F894EC912E2B2C938FBF42
:1002F000EACF3FB7F8948091890290918A02A09149
:100300008B02B0918C0226B5A89B05C02F3F19F037
:100310000196A11DB11D3FBFBA2FA92F982F882785
:10032000BC01CD01620F711D811D911D42E0660F60
:10033000771F881F991F4A95D1F708958F929F9232
:10034000AF92BF92CF92DF92EF92FF924B015C018E
:100350000E9479016B017C010E9479016C197D0971
:100360008E099F09683E734081059105A8F321E03D
:10037000821A9108A108B10888EEC80E83E0D81E41
:10038000E11CF11C81149104A104B10429F7FF9030
:10039000EF90DF90CF90BF90AF909F908F90089597
:1003A00020916502260F3327331F21323105ECF4EB
:1003B00020910103FC0190E080E0243069F082E0AC
:1003C0000895A09165022191AC014B5B5D4FA40F94
:1003D000B52FB11D2C930196861798F38091650275
:1003E000680F6093650280E0089581E0089510929F
:1003F000010381E0809300031092DB0261E082E15F
:100400000E940F0161E083E10E940F01E9EBF0E03F
:1004100080818E7F808380818D7F808388E480933C
:10042000B80085E48093BC000895CF93DF9391E0FA
:10043000909344028823B9F0C091B800D091BA00DB
:100440008091BC008A7B8093BC0060E082E10E94C6
:100450000F0160E083E10E940F010E94F701D09339
:10046000BA00C093B800DF91CF9108958F929F9208
:10047000AF92BF92CF92DF92EF92FF920F931F93B2
:10048000CF93DF93D0912A03D13208F0D7C0182F31
:10049000C09129030E9479016B017C0180910103C5
:1004A00081116BC082E080930103109300038FEFF2
:1004B0008093FF021092FE02D093FD02A9E0B3E008
:1004C000EDEDF2E080E0D81391C01092DC02809153
:1004D000DC02CC0FC82BC093DC028091DB028130A0
:1004E00009F088C01092DB020E9479016B017C0147
:1004F0008091DC028093BB00809103039091040300
:10050000A0910503B0910603892B8A2B8B2BA1F0B8
:100510000E947901009103031091040320910503C7
:10052000309106036C197D098E099F09061717077C
:100530002807390708F442C08091BC0083FDD8CF5A
:1005400085EC8093BC000E9479016B017C01809155
:100550000103823009F450C08091FF028F3F09F4FB
:100560006FC08091FF02803209F46CC08091FF025D
:10057000803309F469C084E026C080910303909120
:100580000403A0910503B0910603892B8A2B8B2BC2
:1005900009F484CF0E9479018090030390900403B2
:1005A000A0900503B09006036C197D098E099F0980
:1005B00086169706A806B90608F070CF8091020348
:1005C0000E94150285E01092080310922A031092EF
:1005D0000703DF91CF911F910F91FF90EF90DF9074
:1005E000CF90BF90AF909F908F9008959D919193E1
:1005F0008F5F69CF85EEA5CF8091030390910403AF
:10060000A0910503B0910603892B8A2B8B2B09F44B
:100610009ECF0E9479010091030310910403209161
:100620000503309106036C197D098E099F09061791
:1006300017072807390708F08ACFC0CF81E0C3CF5A
:1006400080E0C1CF82E0BFCF83E0BDCFE0919A02CE
:1006500080919902E81730F4F0E0E556FD4F808173
:1006600090E008958FEF9FEF089590919A02809106
:1006700099022FEF3FEF981748F4E92FF0E0E55685
:10068000FD4F208130E09F5F90939A02C901089549
:100690008091990290919A02891B990B0895CF92AB
:1006A000DF92EF92FF920F931F93CF93DF937C0122
:1006B000CB018A0120910703222389F0EB016B0112
:1006C000C40ED51ECC15DD0569F06991D701ED91F9
:1006D000FC910190F081E02DC7010995F3CF642FC3
:1006E0000E94D001C801DF91CF911F910F91FF901F
:1006F000EF90DF90CF900895CF93DF931F92CDB707
:10070000DEB76983209107032223F9F020912A03A1
:10071000203258F021E030E0FC013383228390E066
:1007200080E00F90DF91CF91089580910803E82F2A
:10073000F0E0E75FFC4F998190838F5F809308031F
:1007400080932A0381E090E0ECCF61E0CE01019636
:100750000E94D001F7CF1F93CF93DF93EA01122FAE
:10076000DC0111968D919C91DC01ED91FC91028050
:10077000F381E02D0995C817D90729F4812F0E942C
:10078000360291E0811190E0892FDF91CF911F9186
:100790000895CF93DF93EC018B818823A1F08881AA
:1007A00091E090930703809329031092080310921D
:1007B0002A0381E00E94360291E0811190E0892FA6
:1007C000DF91CF91089510929A021092990210929F
:1007D000080310922A030E94F7018EE890E090939C
:1007E0009402809393028FE890E09093920280931A
:1007F000910281E08B83CE010E94C903982F811161
:10080000CECFDDCF20918F0230919002281739078B
:1008100071F490918D0280918E02981741F0E091D1
:100820008D02F0E0EC5FFD4F808190E008958FEF46
:100830009FEF0895EF92FF920F931F93CF93DF9353
:10084000DC015C96ED90FC905D97E114F10479F485
:1008500081E090E013969C938E93129790E080E055
:10086000DF91CF911F910F91FF90EF9008955196D6
:10087000ED91FC91529750968C915097982F9095AE
:100880000FB75E962C915E97122F127021FD609526
:10089000F8942081112319F1282B2083E701219757
:1008A000F1F728E0462F50E0308160FF1AC0382B66
:1008B0003083E7012197F1F7BA01759567952150CB
:1008C00089F7112381F08081892380830FBF5C9693
:1008D0008D919C910197F1F781E090E0C1CF2923A0
:1008E000DCCF3923E5CF9081892BEFCF20918F0288
:1008F000309190022817390761F480918E0220917F
:100900008D0290E0805C9F4F821B91098F73992725
:10091000089590E080E0089520918F023091900238
:1009200028173907B9F490918D0280918E0298179B
:1009300089F0E0918D02F0E0EC5FFD4F8081209125
:100940008D0230E02F5F3F4F2F73332720938D02AE
:1009500090E008958FEF9FEF089590E080E0089574
:1009600060E087E00E940F0160E088E00E940F01D4
:1009700060E089E00E940F0160E08AE00C940F01C2
:100980008A30910508F0B1C0FC01E753FB4F0C948D
:10099000140FD304EF0405051F0531054305510568
:1009A000670569056F0561E080E00E940F0161E065
:1009B00081E00E940F0161E082E00E940F0161E08E
:1009C00083E00E940F0161E084E00E940F0161E07A
:1009D00085E00E940F0160E086E00C940F0160E06A
:1009E00080E00E940F0161E081E00E940F0161E060
:1009F00082E00E940F0160E083E00E940F0160E04E
:100A000084E00E940F0160E0E3CF61E080E00E949B
:100A10000F0161E081E00E940F0160E082E00E942E
:100A20000F0161E083E00E940F0161E084E00E9419
:100A30000F0160E085E00E940F0161E0CDCF61E031
:100A400080E00E940F0161E081E00E940F0161E0FF
:100A500082E00E940F0161E083E00E940F0160E0EC
:100A6000E5CF60E080E00E940F0161E081E00E943C
:100A70000F0161E082E00E940F0160E083E00E94CC
:100A80000F0160E01FC061E080E00E940F0160E0A4
:100A900081E00E940F0161E082E00E940F0161E0AD
:100AA000EDCF61E080E00E940F0160E081E00E94F4
:100AB0000F0161E082E00E940F0161E083E00E948B
:100AC0000F0161E084E00E940F0161E0B3CF61E0BB
:100AD00087CF61E080E00E940F0161E0E7CF61E035
:100AE00080E00E940F0161E0D3CF0895FC010190E6
:100AF0000020E9F73197AF01481B590BBC0187E390
:100B000093E00C949000CF93DF930E947605EC0164
:100B10008CE291E00E9476058C0F9D1FDF91CF91B2
:100B200008958F929F92AF92BF92CF92DF92EF92F1
:100B3000FF920F931F93CF93DF93CDB7DEB7A197AB
:100B40000FB6F894DEBF0FBECDBF6C01990FEE0853
:100B5000FF08F7FE41C06DE287E393E00E941A04AC
:100B60008C0122273327A9012C193D094E095F0961
:100B700019A2CE0181967C019AE0892E912CA12C9C
:100B8000B12CCA01B901A50194010E94F20E605D69
:100B9000F70162937F01211531054105510589F760
:100BA00090E080E0309719F0CF010E947605800F29
:100BB000911FA1960FB6F894DEBF0FBECDBFDF9197
:100BC000CF911F910F91FF90EF90DF90CF90BF904A
:100BD000AF909F908F900895A701960119A28E0162
:100BE0000F5D1F4F8AE0C82ED12CE12CF12CCA01D9
:100BF000B901A70196010E94F20E605DF8016293AF
:100C00008F01211531054105510589F790E080E0FC
:100C1000309779F2CF010E947605CBCF85ED809396
:100C2000BC008091030390910403A0910503B0914F
:100C300006030796A11DB11D23E0B695A7959795CC
:100C400087952A95D1F72091BC0024FD03C010920E
:100C5000010308954091030350910403609105033B
:100C600070910603452B462B472B69F30097A1058E
:100C7000B10541F02AE22A95F1F700C00197A109D8
:100C8000B109E1CF809102030C9415021F920F92DB
:100C90000FB60F9211242F933F938F939F93AF938F
:100CA000BF938091950290919602A0919702B09186
:100CB00098023091880223E0230F2D3758F50196D2
:100CC000A11DB11D209388028093950290939602F6
:100CD000A0939702B09398028091890290918A0222
:100CE000A0918B02B0918C020196A11DB11D809341
:100CF000890290938A02A0938B02B0938C02BF91D9
:100D0000AF919F918F913F912F910F900FBE0F90B8
:100D10001F90189526E8230F0296A11DB11DD2CF72
:100D20001F920F920FB60F9211242F933F934F9360
:100D30005F936F937F938F939F93AF93BF93EF9343
:100D4000FF938091B900887F803609F44AC0F0F59E
:100D5000883209F4A7C018F5803109F49BC0B8F4B3
:100D6000882309F4F9C0883009F494C0FF91EF9109
:100D7000BF91AF919F918F917F916F915F914F91B3
:100D80003F912F910F900FBE0F901F9018958831B3
:100D900009F488C0803251F78093FF0214C0803478
:100DA00009F49DC040F48033B9F38833F9F6809399
:100DB000FF0285ECB0C0803509F485C0883509F4A0
:100DC00096C0883499F60E940E06D0CF883909F46F
:100DD0008CC038F5883729F050F4883611F0803708
:100DE00029F683E0809301031092870257C0883868
:100DF00009F47BC0803919F0803809F0B7CF8091B1
:100E00008702803208F071C0E091870281E08E0F86
:100E1000809387028091BB00F0E0E959FD4F808309
:100E20003DC0803B39F0E0F4803A09F479C0883A5B
:100E300009F09CCF84E08093010310926602109227
:100E40006502E0919302F091940209958091650208
:100E500081110FC081E0809365021092450209C0A4
:100E6000803C09F4A6CF883C09F4A3CF883B09F065
:100E70007DCFE091660281E08E0F80936602F0E004
:100E8000EB5BFD4F80818093BB0090916602809167
:100E9000650229C08091DC028093BB0085EC8093C1
:100EA000BC0064CF9091FE028091FD02981758F526
:100EB000E091FE0281E08E0F8093FE02F0E0E352AB
:100EC000FD4F8081E9CFE091FE0281E08E0F80939B
:100ED000FE028091BB00F0E0E352FD4F80839091D1
:100EE000FE028091FD029817C8F285E8D8CFE09104
:100EF000FE0281E08E0F8093FE028091BB00F0E045
:100F0000E352FD4F80838091000381115CCF81E02B
:100F10008093DB0284EA8093BC001092010326CF09
:100F200085EC8093BC00109201038091870280328F
:100F300030F4E0918702F0E0E959FD4F10826091B2
:100F4000870270E0E0919102F091920287E692E0D0
:100F50000995109287020ACF1092FF0234CF1F9298
:100F60000F920FB60F9211242F933F934F935F93DD
:100F70006F937F938F939F93AF93BF93EF93FF9361
:100F8000E0918F02F0919002309749F0A685B785E5
:100F90008585968D91FF14C09C918923A1F4FF91C2
:100FA000EF91BF91AF919F918F917F916F915F91E1
:100FB0004F913F912F910F900FBE0F901F9018955A
:100FC0009C91892361F7A389B4899C918589809537
:100FD00089238C93868997890197F1F7608D718DAC
:100FE000A685B785558538E020E0CB010197F1F75C
:100FF000822F90E095958795282F4C91452309F0F5
:101000002068315091F7868D81FD209580918E0268
:1010100090E001968F73992730918D02381799F0DF
:10102000A0918E02B0E0AC5FBD4F2C9380938E02F6
:10103000828D938D0197F1F7A389B4898C9195895D
:10104000892B8C93ACCF868D8160868FF1CF1092E7
:101050002E0310922D0388EE93E0A0E0B0E0809381
:101060002F0390933003A0933103B09332032CE00D
:1010700031E030932C0320932B0310923A0310920B
:10108000390380933B0390933C03A0933D03B093BB
:101090003E038EE191E090933803809337031092E2
:1010A0004E0310924D031092500310924F03109272
:1010B0005203109251031092540310925303609103
:1010C00055036E7F6D7F609355036695617081E077
:1010D00068278DE00E940F0161E08DE00E943D01D4
:1010E000EBEBF0E0E491E0934703E7EAF0E0E49112
:1010F000F0E0EE0FFF1FE057FF4F85919491909322
:1011000049038093480360E08CE00E943D01809198
:10111000550381FD04C061E08CE00E940F018CE06A
:1011200080934303EAEBF0E0E491E0934403E6EAC2
:10113000F0E0E491F0E0EE0FFF1FEA57FF4F8591DA
:10114000949190934603809345030895CF93DF9342
:10115000CDB7DEB728970FB6F894DEBF0FBECDBF70
:10116000789484B5826084BD84B5816084BD85B582
:10117000826085BD85B5816085BD80916E0081608E
:1011800080936E0010928100809181008260809334
:101190008100809181008160809381008091800036
:1011A0008160809380008091B10084608093B10061
:1011B0008091B00081608093B00080917A0084605B
:1011C00080937A0080917A00826080937A00809187
:1011D0007A00816080937A0080917A0080688093A1
:1011E0007A001092C10060E08CE00E943D0161E055
:1011F0008DE00E943D011092520310925103109213
:10120000500310924F0310924E0310924D038DE93C
:1012100091E090935403809353039091430396314C
:1012200008F047C02DEB30E030934E0320934D0380
:101230002BE931E03093500320934F032CE231E04F
:1012400030935203209351032091680084E098303A
:1012500048F031E09E3008F430E081E001C0880FB2
:101260003A95EAF7822B809368002DE630E09830BB
:1012700050F02BE630E09E3030F02CE630E0963136
:1012800010F030E020E030934B0320934A03292FE5
:1012900030E0983008F08CC081E001C0880F9A954A
:1012A000EAF780934C038091530390915403019784
:1012B000F1F78091510390915203892B49F1E0910C
:1012C0008F02F091900203E0E733F00709F13097C5
:1012D00039F0A389B4899C918589809589238C9361
:1012E000809155038E7F8093550310928E02109249
:1012F0008D0287E393E09093900280938F02E091B8
:101300004A03F0914B03808190914C03892B808399
:101310008FE291E00E9483058091C1029091C20208
:10132000009711F00E94CA0F86E090E00E942E0FF5
:101330008C0188E6D8018C938BE293E012969C9303
:101340008E93119713961C92139780E290E0159656
:101350009C938E9314971093C2020093C102109233
:101360009A02109299021092080310922A030E9486
:10137000F7018EE890E090939402809393028FE8B7
:1013800090E0909392028093910281E0F801838330
:10139000C8010E94C903811118C08EE591E00E9426
:1013A00083056AE070E080E090E00E949E01F9CF42
:1013B0009E3040F42850310981E001C0880F2A9501
:1013C000EAF76FCF2E503109F7CF61E080E00E943D
:1013D0003D0161E081E00E943D0161E082E00E9408
:1013E0003D0161E083E00E943D0161E084E00E94F4
:1013F0003D0161E085E00E943D0161E086E00E94E0
:101400003D0161E08BE00E943D0161E087E00E94C8
:101410003D0161E088E00E943D0161E089E00E94B9
:101420003D0161E08AE00E943D0160E087E00E94AA
:101430000F0160E088E00E940F0160E089E00E94F7
:101440000F0160E08AE00E940F0161E08EE00E94DF
:101450003D0162E08FE00E943D0162E080E10E9478
:101460003D0162E081E10E943D0161E08EE00E9469
:101470000F0160E08FE00E940F0160E080E10E94B8
:101480000F0160E081E10E940F0160E08BE00E94AB
:101490000F01FAE0EF2EF12C8E010F5F1F4F380184
:1014A0002FB7F8948091950290919602A09197029F
:1014B000B09198022FBF4091D7025091D80260910D
:1014C000D9027091DA028C019D01041B150B260BC9
:1014D000370BB901A8014C32514061057105D0F0BC
:1014E0008093D7029093D802A093D902B093DA02E6
:1014F0008091D5029091D602892B09F090C221E00B
:1015000030E03093D6022093D5026091D5028BE073
:101510000E940F0160E08EE00E940F0180E10E94B6
:10152000E6009093D4028093D3028FE00E94E600FD
:101530008C019093D2028093D10281E10E94E60057
:101540009093D0028093CF020130110559F510938A
:10155000CE020093CD020E94B0040091CB02109104
:10156000CC020F5F1F4F1093CC020093CB0268ECAC
:1015700070E080E090E00E949E010430110521F4AB
:101580001092CC021092CB0280E791E00E9483057A
:101590008091CB029091CC020E9491058CE291E067
:1015A0000E9476058091D3029091D40281309105FA
:1015B00009F080C09093CE028093CD028091CB023F
:1015C0009091CC028130910509F448C20CF02CC2F4
:1015D000892B09F439C268EC70E080E090E00E9449
:1015E0009E018091C9029091CA02039721F4109242
:1015F000CA021092C9028091C9029091CA02209138
:10160000C7023091C8022530310539F48230910586
:1016100021F41092C8021092C7022091C7023091A3
:10162000C8022A30310531F4029724F41092C8021E
:101630001092C7028091C5029091C602069721F4CC
:101640001092C6021092C5028091C3029091C4020A
:101650000A9721F41092C4021092C30284E891E028
:101660000E9483058091C9029091CA020E9491054F
:1016700088EB91E00E9476058091C7029091C802A4
:101680000E94910588EB91E00E9476058091C50249
:101690009091C6020E94910588EB91E00E94760528
:1016A0008091C3029091C4020E9491058DE291E065
:1016B0000E9483058091CD029091CE02019709F09E
:1016C0005CC061E08AE00E940F018091C9029091A4
:1016D000CA02B7010E94DE0E0E94C0046AE070E0F8
:1016E00080E090E00E949E0160E08AE00E940F018D
:1016F00061E089E00E940F018091C7029091C802C9
:10170000B7010E94DE0E0E94C0046AE070E080E033
:1017100090E00E949E0160E089E00E940F0161E07C
:1017200088E00E940F018091C5029091C602B70126
:101730000E94DE0E0E94C0046AE070E080E090E04B
:101740000E949E0160E088E00E940F0161E087E056
:101750000E940F018091C3029091C402B7010E94C0
:10176000DE0E0E94C0046AE070E080E090E00E941B
:101770009E0160E087E00E940F018091CF0290916E
:10178000D002019709F096C09091C5023AE080918D
:10179000C302482F939F400D11249091C90280915C
:1017A000C702282F939F200D112486E0D3011D929C
:1017B0008A95E9F7842F632F0E94D20E982F880F05
:1017C000890F880F840F8B83822F0E94D20E982F4F
:1017D000880F890F880F820F8C8385E28E8382E0C9
:1017E0008F8382E288878091C1029091C202FC01BE
:1017F000248135812830310580F0208131E030931B
:101800000703209329031092080310922A0321E072
:1018100048E050E0B3010E94AB030E94B00462E3D1
:1018200070E080E090E00E949E018091C90290915A
:10183000CA024AE0489F9001499F300D11248091CF
:10184000C7029091C802280F391F3093C00220931D
:10185000BF026091C5027091C602469FC001479FBA
:10186000900D11244091C3025091C402840F951F22
:101870009093BE028093BD0264E6629FA001639FC5
:10188000500D1124840F951F9093BC028093BB02CE
:101890008DE991E00E9483058091BB029091BC028A
:1018A0000E9491058CE291E00E9476051092CE0292
:1018B0001092CD028091CD029091CE02892B09F039
:1018C00023C219828090C1029090C202D401149662
:1018D0008D919C911597892B09F448C18C9191E0C9
:1018E00090930703809329031092080310922A0310
:1018F00020E041E050E0B301C4010E94AB03882323
:1019000009F434C1B12CA12CF40184819581E7E064
:10191000CE2ED12CCA18DB088C159D0508F46C015D
:10192000D4010C910E9479011B012C0180910103CB
:101930008111A8C01C2D113208F010E2B1E0B09363
:10194000010321E087E090E08C199D09A816B906F3
:1019500008F420E020930003EFEFE093FF021092E1
:10196000FE028FEF810F8093FD02F1E0F093DC0225
:101970008091DC02000F082B0093DC028091DB02D7
:10198000813009F0C6C01092DB020E9479011B0170
:101990002C018091DC028093BB0080910303909125
:1019A0000403A0910503B0910603892B8A2B8B2B8E
:1019B000A1F00E947901209103033091040340912A
:1019C00005035091060362197309840995092617C6
:1019D00037074807590708F476C08091BC0083FD9B
:1019E000D8CF05EC0093BC000E9479011B012C01AB
:1019F00080910103813009F490C08091FE0281172B
:101A000010F41091FE02ADEDB2E0EBE9F2E080E0FF
:101A1000811709F45DC09D9191938F5FF9CF10926A
:101A2000D6021092D50271CD8230910509F103974B
:101A300009F0D1CD8091C3029091C4020196909398
:101A4000C4028093C302C7CD8091C9029091CA029B
:101A500001969093CA028093C902BDCD8091C702BE
:101A60009091C80201969093C8028093C702B3CDAB
:101A70008091C5029091C60201969093C602809310
:101A8000C502A9CD8091030390910403A0910503A1
:101A9000B0910603892B8A2B8B2B09F447CF0E9428
:101AA0007901209103033091040340910503509183
:101AB0000603621973098409950926173707480731
:101AC000590708F033CF809102030E94150210E0FD
:101AD00010929A02109399021C151D0409F046C039
:101AE00083010A0D1B1D2801C801841995098C1555
:101AF0009D05A8F5D40111968D919C91DC01ED9185
:101B0000FC910284F385E02D0995F80181938F0102
:101B1000EBCF25EE2093BC0067CF8091030390911B
:101B20000403A0910503B0910603892B8A2B8B2B0C
:101B300009F45ECF0E9479012091030330910403E0
:101B400040910503509106036219730984099509B0
:101B5000261737074807590708F04ACFB4CFAC0C0F
:101B6000BD1CF7E0AF16B10408F4CECE5A818B81CC
:101B7000282F30E074E0359527957A95E1F7922F7C
:101B8000990F990F422F491B440F480F20910001D4
:101B900030910101493180F4852F90E064E0959502
:101BA00087956A95E1F7982F990F990F891B880FF0
:101BB000850F8D3308F4B0C0232B61F08AEB91E0E0
:101BC0000E9483058DED91E00E9483051092010132
:101BD000109200011092C0021092BF021092BE0239
:101BE0001092BD028091BD029091BE02CC9769F423
:101BF0008091BF029091C0021092BE021092BD026D
:101C000001969093C0028093BF028091BF02909191
:101C1000C0020D9731F401E010E01093C002009370
:101C2000BF02A090BD02B090BE028091BF02909111
:101C3000C00224E6289F8001299F100D11240A0D5F
:101C40001B1D1093BC020093BB0261E087E00E9461
:101C50000F01C801B7010E94DE0E6B010E94C00493
:101C60006AE070E080E090E00E949E0160E087E022
:101C70000E940F0161E088E00E940F01C601B701D8
:101C80000E94DE0E0E94C0046AE070E080E090E0F6
:101C90000E949E0160E088E00E940F0161E089E0FF
:101CA0000E940F01C80164E670E00E94DE0ECB01C5
:101CB000B7010E94DE0E0E94C0046AE070E080E07E
:101CC00090E00E949E0160E089E00E940F0161E0C7
:101CD0008AE00E940F01C80168EE73E00E94DE0EE8
:101CE000CB010E94C0046AE070E080E090E00E94B6
:101CF0009E0160E08AE00E940F011FEFA11AB10A65
:101D0000B092BE02A092BD0220E030E0232B09F485
:101D1000C7CB0E940000C4CB50E05093C002409358
:101D2000BF0290E09093BE028093BD02232B09F482
:101D300059CF8BEE91E00E9476058091BF02909181
:101D4000C0020E9491058BE991E00E947605809186
:101D5000BD029091BE020E9491058DE291E00E9429
:101D6000830510920101109200013CCF8EE191E0B9
:101D7000909338038093370380918F029091900263
:101D80008753934071F4E0914A03F0914B039081A3
:101D900080914C0380958923808310929002109249
:101DA0008F020895991B79E004C0991F961708F0D7
:101DB000961B881F7A95C9F78095089597FB072E83
:101DC00016F4009407D077FD09D00E941A0F07FC83
:101DD00005D03EF4909581959F4F0895709561953B
:101DE0007F4F0895A1E21A2EAA1BBB1BFD010DC057
:101DF000AA1FBB1FEE1FFF1FA217B307E407F507BB
:101E000020F0A21BB30BE40BF50B661F771F881F96
:101E1000991F1A9469F760957095809590959B012C
:101E2000AC01BD01CF010895EE0FFF1F0590F491A5
:101E3000E02D0994AA1BBB1B51E107C0AA1FBB1FC1
:101E4000A617B70710F0A61BB70B881F991F5A9546
:101E5000A9F780959095BC01CD0108950F931F932C
:101E6000CF93DF938230910510F482E090E0E0910F
:101E70005803F091590330E020E0B0E0A0E0309743
:101E800099F42115310509F44AC0281B390B243077
:101E90003105D8F58A819B816115710589F1FB01B6
:101EA00093838283FE0111C040815181028113819D
:101EB00048175907E0F04817590799F4109761F04F
:101EC00012960C93129713961C933296CF01DF91C2
:101ED000CF911F910F9108950093580310935903C8
:101EE000F4CF2115310551F04217530738F0A901FD
:101EF000DB019A01BD01DF01F801C1CFEF01F9CF8C
:101F00009093590380935803CDCFFE01E20FF31F46
:101F1000819391932250310939832883D7CF20911F
:101F2000560330915703232B41F420910401309143
:101F300005013093570320935603209102013091FD
:101F400003012115310541F42DB73EB7409106013B
:101F500050910701241B350BE0915603F091570374
:101F6000E217F307A0F42E1B3F0B2817390778F070
:101F7000AC014E5F5F4F2417350748F04E0F5F1FCF
:101F80005093570340935603819391939FCFF0E072
:101F9000E0E09CCFCF93DF930097E9F0FC0132970C
:101FA00013821282A0915803B0915903ED0130E0E1
:101FB00020E01097A1F420813181820F931F20919E
:101FC0005603309157032817390709F061C0F09381
:101FD0005703E0935603DF91CF910895EA01CE179E
:101FE000DF07E8F54A815B819E0141155105B1F794
:101FF000E901FB83EA8349915991C40FD51FEC177E
:10200000FD0761F4808191810296840F951FE9019B
:1020100099838883828193819B838A83F0E0E0E0C7
:1020200012968D919C9113970097B9F52D913C9143
:102030001197CD010296820F931F20915603309184
:1020400057032817390739F6309751F5109259037D
:1020500010925803B0935703A0935603BCCFD38379
:10206000C28340815181840F951FC817D90761F43D
:102070004E5F5F4F88819981480F591F518340837C
:102080008A819B81938382832115310509F0B0CF2A
:10209000F0935903E09358039ECFFD01DC01C0CFBC
:1020A00013821282D7CF10E0C2E6D0E004C0FE0156
:1020B0000E94140F2196C336D107C9F7F894FFCFB9
:1020C000010000005A038000000000007C034F0361
:1020D000AD048D00480335032603000000001A04F8
:1020E0009000AD048D0076048C0402040D0A000AF1
:1020F0002E2E2E2E2E2E2E2E2E2E2E2E2E52656172
:102100006C2054696D6520436C6F636B20484820D8
:102110004D4D2E2E2E2E2E2E2E2E2E2E2E00436F79
:10212000756C646E27742066696E64205254430097
:102130000A446973706C61792053656C65637465DA
:1021400064203A000A53656C6563746564205469C1
:102150006D6520482048204D204D203A000A5254F9
:1021600043204453313330372054696D6520536523
:1021700074203A2048484D4D200053657420436C2C
:102180006F636B2054696D65207573696E672050AD
:1021900075736820427574746F6E732E00446566A3
:1021A00061756C742030303A303000436C6F636B73
:1021B000205374617274656420776974682054696F
:0421C0006D65200029
:00000001FF
