:100000000C9463000C948B000C948B000C94B90737
:100010000C94B9070C94B9070C948B000C948B00CA
:100020000C948B000C948B000C948B000C948B0024
:100030000C948B000C948B000C948B000C948B0014
:100040000C9450060C948B000C948B000C948B0039
:100050000C948B000C948B000C948B000C948B00F4
:100060000C949A060C948B000000000024002700DA
:100070002A0000000008000201000003040700003D
:1000800000000000000000000000230026002900FE
:1000900000000000250028002B00040404040404D0
:1000A0000404020202020202030303030303010227
:1000B00004081020408001020408102001020408F6
:1000C000102031082C0E11241FBECFEFD8E0DEBF68
:1000D000CDBF23E0A8EBB1E001C01D92A830B2076C
:1000E000E1F711E0A0E0B1E0ECEAFFE102C0059029
:1000F0000D92A83BB107D9F710E0C2E6D0E004C0EA
:100100002197FE010E948A0EC136D107C9F70E94CD
:10011000B0080C94C90F0C94000008950895089538
:10012000AF92BF92CF92DF92EF92FF920F931F9305
:10013000CF93DF936C017B018B01040F151FEB0143
:100140005E01AE18BF08C017D10759F06991D601FA
:10015000ED91FC910190F081E02DC6010995892B6C
:1001600079F7C501DF91CF911F910F91FF90EF902B
:10017000DF90CF90BF90AF900895833081F028F446
:10018000813099F08230A9F008958730A9F0883045
:10019000C9F08430B1F4809180008F7D03C08091DC
:1001A00080008F7780938000089584B58F7784BD19
:1001B000089584B58F7DFBCF8091B0008F778093B9
:1001C000B00008958091B0008F7DF9CFCF93DF9379
:1001D000282F30E0F901EE58FF4F8491F901E255E4
:1001E000FF4FD491F901E656FF4FC491CC23A1F003
:1001F00081110E94BD00EC2FF0E0EE0FFF1FEA57C7
:10020000FF4FA591B491EC91ED2381E090E009F4CA
:1002100080E0DF91CF91089580E090E0FACF1F93C6
:10022000CF93DF93282F30E0F901EE58FF4F8491F0
:10023000F901E255FF4FD491F901E656FF4FC49101
:10024000CC23A9F0162F81110E94BD00EC2FF0E005
:10025000EE0FFF1FE057FF4FA591B4918FB7F894B1
:10026000EC91111108C0D095DE23DC938FBFDF9194
:10027000CF911F910895DE2BF8CFCF93DF9390E0BD
:10028000FC01E255FF4F249186569F4FFC0184915B
:100290008823C9F090E0880F991FFC01E859FF4FAF
:1002A000A591B491FC01E057FF4FC591D491611124
:1002B0000DC09FB7F8948C91209582238C938881F0
:1002C000282328839FBFDF91CF910895623051F496
:1002D0009FB7F8943C91822F809583238C93E8817B
:1002E0002E2BEFCF8FB7F894EC912E2B2C938FBF42
:1002F000EACF3FB7F8948091410290914202A091D9
:100300004302B091440226B5A89B05C02F3F19F0C7
:100310000196A11DB11D3FBFBA2FA92F982F882785
:10032000BC01CD01620F711D811D911D42E0660F60
:10033000771F881F991F4A95D1F708958F929F9232
:10034000AF92BF92CF92DF92EF92FF924B015C018E
:100350000E9479016B017C010E9479016C197D0971
:100360008E099F09683E734081059105A8F321E03D
:10037000821A9108A108B10888EEC80E83E0D81E41
:10038000E11CF11C81149104A104B10429F7FF9030
:10039000EF90DF90CF90BF90AF909F908F90089597
:1003A00020911902260F3327331F21323105ECF437
:1003B0002091AF02FC0190E080E0243069F082E0FF
:1003C0000895A09119022191AC0147505E4FA40FEE
:1003D000B52FB11D2C930196861798F380911902C1
:1003E000680F6093190280E0089581E008951092EB
:1003F000AF0281E08093AE021092890261E082E157
:100400000E940F0161E083E10E940F01E9EBF0E03F
:1004100080818E7F808380818D7F808388E480933C
:10042000B80085E48093BC000895CF93DF9391E0FA
:100430009093F8018823B9F0C091B800D091BA0028
:100440008091BC008A7B8093BC0060E082E10E94C6
:100450000F0160E083E10E940F010E94F701D09339
:10046000BA00C093B800DF91CF9108958F929F9208
:10047000AF92BF92CF92DF92EF92FF920F931F93B2
:10048000CF93DF93D091D802D13208F0D7C0182F84
:10049000C091D7020E9479016B017C018091AF026B
:1004A00081116BC082E08093AF021093AE028FEF98
:1004B0008093AD021092AC02D093AB02A7EBB2E0F6
:1004C000EBE8F2E080E0D81391C010928A028091AC
:1004D0008A02CC0FC82BC0938A0280918902813096
:1004E00009F088C0109289020E9479016B017C0199
:1004F00080918A028093BB008091B1029091B202F8
:10050000A091B302B091B402892B8A2B8B2BA1F05E
:100510000E9479010091B1021091B2022091B302C0
:100520003091B4026C197D098E099F0906171707CF
:100530002807390708F442C08091BC0083FDD8CF5A
:1005400085EC8093BC000E9479016B017C01809155
:10055000AF02823009F450C08091AD028F3F09F4A0
:100560006FC08091AD02803209F46CC08091AD0201
:10057000803309F469C084E026C08091B102909173
:10058000B202A091B302B091B402892B8A2B8B2BBB
:1005900009F484CF0E9479018090B1029090B20258
:1005A000A090B302B090B4026C197D098E099F0926
:1005B00086169706A806B90608F070CF8091B0029B
:1005C0000E94150285E01092B6021092D802109295
:1005D000B502DF91CF911F910F91FF90EF90DF90C7
:1005E000CF90BF90AF909F908F9008959D919193E1
:1005F0008F5F69CF85EEA5CF8091B1029091B20255
:10060000A091B302B091B402892B8A2B8B2B09F4F1
:100610009ECF0E9479010091B1021091B202209107
:10062000B3023091B4026C197D098E099F09061737
:1006300017072807390708F08ACFC0CF81E0C3CF5A
:1006400080E0C1CF82E0BFCF83E0BDCFE0914E021A
:1006500080914D02E81730F4F0E0E15BFD4F8081BE
:1006600090E008958FEF9FEF089590914E02809152
:100670004D022FEF3FEF981748F4E92FF0E0E15BD0
:10068000FD4F208130E09F5F90934E02C901089595
:1006900080914D0290914E02891B990B0895CF9243
:1006A000DF92EF92FF920F931F93CF93DF937C0122
:1006B000CB018A012091B502222389F0EB016B0165
:1006C000C40ED51ECC15DD0569F06991D701ED91F9
:1006D000FC910190F081E02DC7010995F3CF642FC3
:1006E0000E94D001C801DF91CF911F910F91FF901F
:1006F000EF90DF90CF900895CF93DF931F92CDB707
:10070000DEB769832091B5022223F9F02091D80247
:10071000203258F021E030E0FC013383228390E066
:1007200080E00F90DF91CF9108958091B602E82F7D
:10073000F0E0E954FD4F998190838F5F8093B6027A
:100740008093D80281E090E0ECCF61E0CE01019689
:100750000E94D001F7CF1F93CF93DF93EA01122FAE
:10076000DC0111968D919C91DC01ED91FC91028050
:10077000F381E02D0995C817D90729F4812F0E942C
:10078000360291E0811190E0892FDF91CF911F9186
:100790000895CF93DF93EC018B818823A1F08881AA
:1007A00091E09093B5028093D7021092B602109216
:1007B000D80281E00E94360291E0811190E0892FF9
:1007C000DF91CF91089510924E0210924D02109237
:1007D000B6021092D8020E94F7018EE890E0909342
:1007E0004C0280934B028FE890E090934A028093F2
:1007F000490281E08B83CE010E94C903982F8111A9
:10080000CECFDDCF2091470230914802281739071B
:1008100071F49091450280914602981741F0E09161
:100820004502F0E0E854FE4F808190E008958FEF9C
:100830009FEF0895EF92FF920F931F93CF93DF9353
:10084000DC015C96ED90FC905D97E114F10479F485
:1008500081E090E013969C938E93129790E080E055
:10086000DF91CF911F910F91FF90EF9008955196D6
:10087000ED91FC91529750968C915097982F9095AE
:100880000FB75E962C915E97122F127021FD609526
:10089000F8942081112319F1282B2083E701219757
:1008A000F1F728E0462F50E0308160FF1AC0382B66
:1008B0003083E7012197F1F7BA01759567952150CB
:1008C00089F7112381F08081892380830FBF5C9693
:1008D0008D919C910197F1F781E090E0C1CF2923A0
:1008E000DCCF3923E5CF9081892BEFCF20914702D0
:1008F000309148022817390761F48091460220910F
:10090000450290E0805C9F4F821B91098F7399276D
:10091000089590E080E008952091470230914802C8
:1009200028173907B9F4909145028091460298172B
:1009300089F0E0914502F0E0E854FE4F808120917B
:10094000450230E02F5F3F4F2F733327209345023E
:1009500090E008958FEF9FEF089590E080E0089574
:1009600060E087E00E940F0160E088E00E940F01D4
:1009700060E089E00E940F0160E08AE00C940F01C2
:100980008A30910508F0B1C0FC01E753FB4F0C948D
:100990008A0ED304EF0405051F05310543055105F3
:1009A000670569056F0561E080E00E940F0161E065
:1009B00081E00E940F0161E082E00E940F0161E08E
:1009C00083E00E940F0161E084E00E940F0161E07A
:1009D00085E00E940F0160E086E00C940F0160E06A
:1009E00080E00E940F0161E081E00E940F0161E060
:1009F00082E00E940F0160E083E00E940F0160E04E
:100A000084E00E940F0160E0E3CF61E080E00E949B
:100A10000F0161E081E00E940F0160E082E00E942E
:100A20000F0161E083E00E940F0161E084E00E9419
:100A30000F0160E085E00E940F0161E0CDCF61E031
:100A400080E00E940F0161E081E00E940F0161E0FF
:100A500082E00E940F0161E083E00E940F0160E0EC
:100A6000E5CF60E080E00E940F0161E081E00E943C
:100A70000F0161E082E00E940F0160E083E00E94CC
:100A80000F0160E01FC061E080E00E940F0160E0A4
:100A900081E00E940F0161E082E00E940F0161E0AD
:100AA000EDCF61E080E00E940F0160E081E00E94F4
:100AB0000F0161E082E00E940F0161E083E00E948B
:100AC0000F0161E084E00E940F0161E0B3CF61E0BB
:100AD00087CF61E080E00E940F0161E0E7CF61E035
:100AE00080E00E940F0161E0D3CF0895FC010190E6
:100AF0000020E9F73197AF01481B590BBC0185EE87
:100B000092E00C9490008F929F92AF92BF920F93BD
:100B10001F93CF93DF93CDB7DEB7A1970FB6F894AD
:100B2000DEBF0FBECDBF19A2423008F44AE08E01ED
:100B30000F5D1F4F842E912CB12CA12CA501940187
:100B40000E94680EE62FB901CA01EA30F4F4E05DB4
:100B5000D801EE938D01232B242B252B79F790E0E0
:100B600080E0109719F0CD010E947605A1960FB68E
:100B7000F894DEBF0FBECDBFDF91CF911F910F91D3
:100B8000BF90AF909F908F900895E95CE1CFCF9296
:100B9000DF92EF92FF92CF93DF936B017C016DE2C6
:100BA00085EE92E00E941A04EC0166277727CB01BC
:100BB0006C197D098E099F094AE00E9483058C0FFC
:100BC0009D1FDF91CF91FF90EF90DF90CF90089520
:100BD000BC01990F880B990B97FD0C94C7054AE04F
:100BE0000C948305CF93DF93BC01990F880B990B6D
:100BF00097FF0CC00E94C705EC018AE291E00E94B9
:100C000076058C0F9D1FDF91CF9108954AE00E94D9
:100C10008305F2CFCF93DF930E947605EC018AE241
:100C200091E00E9476058C0F9D1FDF91CF91089572
:100C300085ED8093BC008091B1029091B202A091A9
:100C4000B302B091B4020796A11DB11D23E0B69581
:100C5000A795979587952A95D1F72091BC0024FDFB
:100C600003C01092AF0208954091B1025091B202B8
:100C70006091B3027091B402452B462B472B69F368
:100C80000097A105B10541F02AE22A95F1F700C0CD
:100C90000197A109B109E1CF8091B0020C9415022E
:100CA0001F920F920FB60F9211242F933F938F93A1
:100CB0009F93AF93BF9380913D0290913E02A0918C
:100CC0003F02B091400230913C0223E0230F2D37C8
:100CD00058F50196A11DB11D20933C0280933D0261
:100CE00090933E02A0933F02B09340028091410254
:100CF00090914202A0914302B09144020196A11D3D
:100D0000B11D8093410290934202A0934302B0939D
:100D10004402BF91AF919F918F913F912F910F907E
:100D20000FBE0F901F90189526E8230F0296A11D65
:100D3000B11DD2CF1F920F920FB60F9211242F9395
:100D40003F934F935F936F937F938F939F93AF9353
:100D5000BF93EF93FF938091B900887F803609F4A9
:100D60004AC0F0F5883209F4A7C018F5803109F4BB
:100D70009BC0B8F4882309F4F9C0883009F494C002
:100D8000FF91EF91BF91AF919F918F917F916F9163
:100D90005F914F913F912F910F900FBE0F901F9039
:100DA0001895883109F488C0803251F78093AD02DC
:100DB00014C0803409F49DC040F48033B9F3883303
:100DC000F9F68093AD0285ECB0C0803509F485C09A
:100DD000883509F496C0883499F60E941806D0CF59
:100DE000883909F48CC038F5883729F050F48836F2
:100DF00011F0803729F683E08093AF0210923B0216
:100E000057C0883809F47BC0803919F0803809F060
:100E1000B7CF80913B02803208F071C0E0913B0275
:100E200081E08E0F80933B028091BB00F0E0E55E95
:100E3000FD4F80833DC0803B39F0E0F4803A09F4F7
:100E400079C0883A09F09CCF84E08093AF02109279
:100E50001A0210921902E0914B02F0914C0209958E
:100E60008091190281110FC081E0809319021092C4
:100E7000F90109C0803C09F4A6CF883C09F4A3CF4E
:100E8000883B09F07DCFE0911A0281E08E0F8093BC
:100E90001A02F0E0E750FE4F80818093BB009091F2
:100EA0001A028091190229C080918A028093BB00A6
:100EB00085EC8093BC0064CF9091AC028091AB0232
:100EC000981758F5E091AC0281E08E0F8093AC0248
:100ED000F0E0E557FD4F8081E9CFE091AC0281E081
:100EE0008E0F8093AC028091BB00F0E0E557FD4F80
:100EF00080839091AC028091AB029817C8F285E88C
:100F0000D8CFE091AC0281E08E0F8093AC0280914B
:100F1000BB00F0E0E557FD4F80838091AE02811168
:100F20005CCF81E08093890284EA8093BC001092B8
:100F3000AF0226CF85EC8093BC001092AF02809167
:100F40003B02803230F4E0913B02F0E0E55EFD4F81
:100F5000108260913B0270E0E0914902F0914A02F8
:100F60008BE192E0099510923B020ACF1092AD02FC
:100F700034CF1F920F920FB60F9211242F933F93ED
:100F80004F935F936F937F938F939F93AF93BF9391
:100F9000EF93FF93E0914702F0914802309749F0B8
:100FA000A685B7858585968D91FF14C09C91892370
:100FB000A1F4FF91EF91BF91AF919F918F917F919C
:100FC0006F915F914F913F912F910F900FBE0F90B6
:100FD0001F9018959C91892361F7A389B4899C91EE
:100FE0008589809589238C93868997890197F1F764
:100FF000608D718DA685B785558538E020E0CB01E1
:101000000197F1F7822F90E095958795282F4C91C5
:10101000452309F02068315091F7868D81FD209598
:101020008091460290E001968F7399273091450296
:10103000381799F0A0914602B0E0A854BE4F2C9307
:1010400080934602828D938D0197F1F7A389B4892D
:101050008C919589892B8C93ACCF868D8160868FFE
:10106000F1CF1092DC021092DB0288EE93E0A0E058
:10107000B0E08093DD029093DE02A093DF02B09394
:10108000E0022AE031E03093DA022093D902109294
:10109000E8021092E7028093E9029093EA02A0939B
:1010A000EB02B093EC028CE191E09093E602809326
:1010B000E5021092FC021092FB021092FE021092C6
:1010C000FD02109200031092FF0210920203109290
:1010D0000103609103036E7F6D7F60930303669548
:1010E000617081E068278DE00E940F0161E08DE072
:1010F0000E943D01EBEBF0E0E491E093F502E7EABA
:10110000F0E0E491F0E0EE0FFF1FE057FF4F859114
:1011100094919093F7028093F60260E08CE00E9435
:101120003D018091030381FD04C061E08CE00E94D9
:101130000F018CE08093F102EAEBF0E0E491E093A0
:10114000F202E6EAF0E0E491F0E0EE0FFF1FEA576A
:10115000FF4F859194919093F4028093F302089548
:10116000CF93DF93CDB7DEB728970FB6F894DEBFE5
:101170000FBECDBF789484B5826084BD84B5816094
:1011800084BD85B5826085BD85B5816085BD809152
:101190006E00816080936E001092810080918100CA
:1011A00082608093810080918100816080938100C2
:1011B000809180008160809380008091B100846084
:1011C0008093B1008091B00081608093B0008091E5
:1011D0007A00846080937A0080917A0082608093A4
:1011E0007A0080917A00816080937A0080917A0001
:1011F000806880937A001092C10060E08CE00E94C9
:101200003D0161E08DE00E943D01109200031092CB
:10121000FF021092FE021092FD021092FC02109248
:10122000FB028DE991E0909302038093010390917A
:10123000F102963108F047C02DEB30E03093FC020C
:101240002093FB022BE931E03093FE022093FD0254
:101250002CE231E0309300032093FF0220916800DC
:1012600084E0983048F031E09E3008F430E081E0CE
:1012700001C0880F3A95EAF7822B809368002DE62B
:1012800030E0983050F02BE630E09E3030F02CE625
:1012900030E0963110F030E020E03093F9022093F6
:1012A000F802292F30E0983008F08CC081E001C0AE
:1012B000880F9A95EAF78093FA0280910103909142
:1012C00002030197F1F78091FF0290910003892BAF
:1012D00049F1E0914702F091480252E0E53EF507FE
:1012E00009F1309739F0A389B4899C91858980955B
:1012F00089238C93809103038E7F80930303109244
:1013000046021092450285EE92E090934802809347
:101310004702E091F802F091F90280819091FA027F
:10132000892B80838DE291E00E940A0680917502EC
:1013300090917602009711F00E94400F86E090E0B5
:101340000E94A40E8C0188E6D8018C9389ED92E06E
:1013500012969C938E93119713961C92139780E28A
:1013600090E015969C938E931497109376020093B9
:10137000750210924E0210924D021092B602109217
:10138000D8020E94F7018EE890E090934C0280937F
:101390004B028FE890E090934A028093490281E0EB
:1013A000F8018383C8010E94C903811118C08CE52C
:1013B00091E00E940A066AE070E080E090E00E94FE
:1013C0009E01F9CF9E3040F42850310981E001C0E0
:1013D000880F2A95EAF76FCF2E503109F7CF61E0D9
:1013E00080E00E943D0161E081E00E943D0161E0FA
:1013F00082E00E943D0161E083E00E943D0161E0E6
:1014000084E00E943D0161E085E00E943D0161E0D1
:1014100086E00E943D0161E087E00E943D0161E0BD
:1014200088E00E943D0161E089E00E943D0161E0A9
:101430008AE00E943D0160E087E00E940F0160E0C9
:1014400088E00E940F0160E089E00E940F0160E0E7
:101450008AE00E940F0161E08EE00E943D0162E09F
:101460008FE00E943D0162E080E10E943D0162E068
:1014700081E10E943D0161E08EE00E940F0160E089
:101480008FE00E940F0160E080E10E940F0160E0A8
:1014900081E10E940F017AE0E72EF12CCE01019646
:1014A0003C0160E08EE00E940F0180E10E94E600B6
:1014B00090938802809387028FE00E94E6008C015F
:1014C000909386028093850281E10E94E6009093CA
:1014D0008402809383020130110539F51093820252
:1014E000009381020E94B00400917F02109180025B
:1014F0000F5F1F4F1093800200937F0268EC70E033
:1015000080E090E00E949E010430110521F41092C9
:10151000800210927F028EE691E00E940A0680917E
:101520007F02909180020E94F20580918702909143
:1015300088028130910509F080C0909382028093E7
:10154000810280917F02909180028130910509F49F
:101550003FC20CF023C2892B09F430C268EC70E062
:1015600080E090E00E949E0180917D0290917E0239
:10157000039721F410927E0210927D0280917D02E9
:1015800090917E0220917B0230917C0225303105C2
:1015900039F48230910521F410927C0210927B0282
:1015A00020917B0230917C022A30310531F4029780
:1015B00024F410927C0210927B0280917902909127
:1015C0007A02069721F410927A02109279028091A1
:1015D0007702909178020A9721F410927802109283
:1015E000770282E891E00E940A0680917D02909144
:1015F0007E020E94E80586EB91E00E9476058091CC
:101600007B0290917C020E94E80586EB91E00E94AB
:1016100076058091790290917A020E94E80586EB26
:1016200091E00E94760580917702909178020E9465
:10163000E8058BE291E00E940A0680918102909178
:101640008202019709F05CC061E08AE00E940F010C
:1016500080917D0290917E02B7010E94540E0E94FB
:10166000C0046AE070E080E090E00E949E0160E0CB
:101670008AE00E940F0161E089E00E940F018091E1
:101680007B0290917C02B7010E94540E0E94C0041C
:101690006AE070E080E090E00E949E0160E089E0F6
:1016A0000E940F0161E088E00E940F0180917902A1
:1016B00090917A02B7010E94540E0E94C0046AE021
:1016C00070E080E090E00E949E0160E088E00E946F
:1016D0000F0161E087E00E940F01809177029091F5
:1016E0007802B7010E94540E0E94C0046AE070E0C4
:1016F00080E090E00E949E0160E087E00E940F0180
:101700008091830290918402019709F092C0909198
:1017100079023AE080917702482F939F400D11247F
:1017200090917D0280917B02282F939F200D1124A0
:1017300086E0D3011D928A95E9F7842F632F0E94DA
:10174000480E982F880F890F880F840F8B83822F64
:101750000E94480E982F880F890F880F820F8C8364
:1017600087E18E8382E08F8382E288878091750291
:1017700090917602FC01248135812830310580F07A
:10178000208131E03093B5022093D7021092B60247
:101790001092D80221E048E050E0B3010E94AB0370
:1017A0000E94B00462E370E080E090E00E949E013D
:1017B00080917D0290917E024AE0489F9001499F6E
:1017C000300D112480917B0290917C02280F391FEB
:1017D00030937402209373026091790270917A02BF
:1017E000469FC001479F900D112440917702509170
:1017F0007802840F951F909372028093710264E6C1
:10180000629FA001639F500D1124840F951F909338
:10181000700280936F028BE991E00E940A0680912A
:101820006F02909170020E94F20510928202109253
:1018300081028091810290918202892B09F0FAC184
:1018400019828090750290907602D40114968D9141
:101850009C911597892B09F443C18C9191E0909349
:10186000B5028093D7021092B6021092D80220E0FF
:1018700041E050E0B301C4010E94AB03882309F4A6
:101880002FC1B12CA12CF4018481958167E0C62E73
:10189000D12CCA18DB088C159D0508F46C01D40105
:1018A0000C910E9479011B012C018091AF028111E2
:1018B000A3C01C2D113208F010E2B1E0B093AF02CA
:1018C00021E087E090E08C199D09A816B90608F47C
:1018D00020E02093AE02EFEFE093AD021092AC0255
:1018E0008FEF810F8093AB02F1E0F0938A02809139
:1018F0008A02000F082B00938A02809189028130AE
:1019000009F0C1C0109289020E9479011B012C01CB
:1019100080918A028093BB008091B1029091B202C3
:10192000A091B302B091B402892B8A2B8B2BA1F02A
:101930000E9479012091B1023091B2024091B3022C
:101940005091B40262197309840995092617370763
:101950004807590708F471C08091BC0083FDD8CFB7
:1019600055EC5093BC000E9479011B012C01809121
:10197000AF02813009F48BC08091AC02811710F462
:101980001091AC02ABE8B2E0EFE4F2E080E0811746
:1019900009F458C09D9191938F5FF9CF82309105E2
:1019A00009F1039709F0DACD8091770290917802DE
:1019B00001969093780280937702D0CD80917D023A
:1019C00090917E02019690937E0280937D02C6CD17
:1019D00080917B0290917C02019690937C0280938F
:1019E0007B02BCCD8091790290917A02019690930E
:1019F0007A0280937902B2CD8091B1029091B202C5
:101A0000A091B302B091B402892B8A2B8B2B09F4DD
:101A10004CCF0E9479012091B1023091B2024091E5
:101A2000B3025091B402621973098409950926170B
:101A300037074807590708F038CF8091B0020E9455
:101A4000150210E010924E0210934D021C151D0459
:101A500009F046C083010A0D1B1D2801C801841925
:101A600095098C159D05A8F5D40111968D919C9131
:101A7000DC01ED91FC910284F385E02D0995F801DC
:101A800081938F01EBCF85EE8093BC006CCF80916A
:101A9000B1029091B202A091B302B091B402892B2D
:101AA0008A2B8B2B09F463CF0E9479012091B1021C
:101AB0003091B2024091B3025091B402621973099D
:101AC00084099509261737074807590708F04FCFAB
:101AD000B4CFAC0CBD1CF7E0AF16B10408F4D3CE04
:101AE0004A81842F90E024E0959587952A95E1F727
:101AF000982F990F990F891B880F480F9B81292FC9
:101B000030E054E0359527955A95E1F7822F880FFC
:101B1000880F522F581B852F880F890F90E09093C4
:101B20007402809373024C3309F48CC050E05093DC
:101B300072024093710280917302909174020D972A
:101B400031F481E090E09093740280937302A0904E
:101B50007102B0907202809173029091740224E637
:101B6000289F8001299F100D11240A0D1B1D109321
:101B7000700200936F0261E087E00E940F01C801CC
:101B8000B7010E94540E6B010E94C0046AE070E02D
:101B900080E090E00E949E0160E087E00E940F01DB
:101BA00061E088E00E940F01C601B7010E94540E57
:101BB0000E94C0046AE070E080E090E00E949E0114
:101BC00060E088E00E940F0161E089E00E940F015F
:101BD000C80164E670E00E94540ECB01B7010E9478
:101BE000540E0E94C0046AE070E080E090E00E9421
:101BF0009E0160E089E00E940F0161E08AE00E949E
:101C00000F01C80168EE73E00E94540ECB010E94E0
:101C1000C0046AE070E080E090E00E949E0160E015
:101C20008AE00E940F019FEFA91AB90AB0927202CE
:101C3000A0927102A0E0B0E0AB2B09F432CC0E947C
:101C400000002FCC109272021092710201969093B4
:101C50007402809373026FCF8CE191E09093E6025F
:101C60008093E5028091470290914802855E924000
:101C700071F4E091F802F091F90290818091FA02FA
:101C8000809589238083109248021092470208951C
:101C9000991B79E004C0991F961708F0961B881FBE
:101CA0007A95C9F78095089597FB072E16F400944E
:101CB00007D077FD09D00E94900E07FC05D03EF4B6
:101CC000909581959F4F0895709561957F4F0895E8
:101CD000A1E21A2EAA1BBB1BFD010DC0AA1FBB1F30
:101CE000EE1FFF1FA217B307E407F50720F0A21BA2
:101CF000B30BE40BF50B661F771F881F991F1A940F
:101D000069F760957095809590959B01AC01BD0138
:101D1000CF010895EE0FFF1F0590F491E02D099477
:101D2000AA1BBB1B51E107C0AA1FBB1FA617B70701
:101D300010F0A61BB70B881F991F5A95A9F780951D
:101D40009095BC01CD0108950F931F93CF93DF931E
:101D50008230910510F482E090E0E0910603F0916A
:101D6000070330E020E0B0E0A0E0309799F42115BF
:101D7000310509F44AC0281B390B24303105D8F548
:101D80008A819B816115710589F1FB0193838283AF
:101D9000FE0111C04081518102811381481759070A
:101DA000E0F04817590799F4109761F012960C93D8
:101DB000129713961C933296CF01DF91CF911F910A
:101DC0000F9108950093060310930703F4CF211594
:101DD000310551F04217530738F0A901DB019A0190
:101DE000BD01DF01F801C1CFEF01F9CF90930703E7
:101DF00080930603CDCFFE01E20FF31F81939193F1
:101E00002250310939832883D7CF209104033091A0
:101E10000503232B41F420910201309103013093FB
:101E20000503209304032091000130910101211545
:101E3000310541F42DB73EB74091040150910501A1
:101E4000241B350BE0910403F0910503E217F3071F
:101E5000A0F42E1B3F0B2817390778F0AC014E5F1A
:101E60005F4F2417350748F04E0F5F1F509305034F
:101E700040930403819391939FCFF0E0E0E09CCFE7
:101E8000CF93DF930097E9F0FC013297138212821F
:101E9000A0910603B0910703ED0130E020E0109718
:101EA000A1F420813181820F931F2091040330918E
:101EB00005032817390709F061C0F0930503E09383
:101EC0000403DF91CF910895EA01CE17DF07E8F50B
:101ED0004A815B819E0141155105B1F7E901FB8300
:101EE000EA8349915991C40FD51FEC17FD0761F49E
:101EF000808191810296840F951FE90199838883DF
:101F0000828193819B838A83F0E0E0E012968D9139
:101F10009C9113970097B9F52D913C911197CD01A4
:101F20000296820F931F2091040330910503281716
:101F3000390739F6309751F51092070310920603CE
:101F4000B0930503A0930403BCCFD383C283408125
:101F50005181840F951FC817D90761F44E5F5F4FF9
:101F600088819981480F591F518340838A819B81C1
:101F7000938382832115310509F0B0CFF0930703D5
:101F8000E09306039ECFFD01DC01C0CF13821282D5
:101F9000D7CF10E0C2E6D0E004C0FE010E948A0E56
:0C1FA0002196C336D107C9F7F894FFCF93
:101FAC00000008038000000000007C034F03AD0418
:101FBC008D00480335032603000000001A0490002E
:101FCC00AD048D0076048C0402040D0A000A2E2E3A
:101FDC002E2E2E2E2E2E2E2E2E2E2E5265616C2057
:101FEC0054696D6520436C6F636B204848204D4DE0
:101FFC002E2E2E2E2E2E2E2E2E2E2E00436F756C48
:10200C00646E27742066696E6420525443000A443F
:10201C006973706C61792053656C656374656420B9
:10202C003A000A53656C65637465642054696D6588
:10203C0020482048204D204D203A000A525443207D
:10204C004453313330372054696D65205365742007
:08205C003A2048484D4D2000D8
:00000001FF
