:100000000C9469000C9491000C9491000C94FB07E3
:100010000C94FB070C94FB070C9491000C9491003A
:100020000C9491000C9491000C9491000C9491000C
:100030000C9491000C9491000C9491000C949100FC
:100040000C9492060C9491000C9491000C949100E5
:100050000C9491000C9491000C9491000C949100DC
:100060000C94DC060C949100000000002400270092
:100070002A0000000008000201000003040700003D
:100080000000000000001F1C1F1E1F1E1F1F1E1F40
:100090001E000000002300260029000000000025AB
:1000A0000028002B000404040404040404020202D7
:1000B00002020203030303030301020408102040A9
:1000C00080010204081020010204081020007308B7
:1000D000F80C11241FBECFEFD8E0DEBFCDBF23E068
:1000E000A4E0B2E001C01D92A036B207E1F712E031
:1000F000A0E0B1E0E4E0FDE102C005900D92A43083
:10010000B107D9F710E0C8E6D0E004C02197FE019E
:100110000E944A0DC736D107C9F70E9426090C94E0
:10012000750E0C940000089508950895AF92BF9243
:10013000CF92DF92EF92FF920F931F93CF93DF93B3
:100140006C017B018B01040F151FEB015E01AE18E2
:10015000BF08C017D10759F06991D601ED91FC9104
:100160000190F081E02DC6010995892B79F7C50131
:10017000DF91CF911F910F91FF90EF90DF90CF9083
:10018000BF90AF90089590E0FC01EE58FF4F24918E
:10019000FC01E754FF4F3491FC01EB55FF4FE49114
:1001A000EE23C9F0222339F0233001F1A8F42130E5
:1001B00019F1223029F1F0E0EE0FFF1FE556FF4F55
:1001C000A591B4918FB7F894EC91611126C0309548
:1001D0003E233C938FBF08952730A9F02830C9F003
:1001E000243049F7809180008F7D03C0809180008A
:1001F0008F7780938000DFCF84B58F7784BDDBCF8E
:1002000084B58F7DFBCF8091B0008F778093B00055
:10021000D2CF8091B0008F7DF9CF3E2BDACFCF9334
:10022000DF9390E0FC01E754FF4F24918B559F4FE3
:10023000FC0184918823D1F090E0880F991FFC0184
:10024000E859FF4FA591B491FC01E556FF4FC591C8
:10025000D49161110EC09FB7F8948C91E22FE09574
:100260008E238C932881E223E8839FBFDF91CF9177
:1002700008958FB7F894EC91E22BEC938FBFF6CFF3
:100280003FB7F89480918D0290918E02A0918F02D9
:10029000B091900226B5A89B05C02F3F19F001969A
:1002A000A11DB11D3FBFBA2FA92F982F8827BC01D0
:1002B000CD01620F711D811D911D42E0660F771FF8
:1002C000881F991F4A95D1F708958F929F92AF92F8
:1002D000BF92CF92DF92EF92FF924B015C010E949E
:1002E00040016B017C010E9440016C197D098E095F
:1002F0009F09683E734081059105A8F321E0821AA9
:100300009108A108B10888EEC80E83E0D81EE11C50
:10031000F11C81149104A104B10429F7FF90EF901E
:10032000DF90CF90BF90AF909F908F9008952091D5
:100330006502260F3327331F21323105ECF420915B
:10034000EF02FC0190E080E0243069F082E0089543
:10035000A09165022191AC014B5B5D4FA40FB52FBD
:10036000B11D2C930196861798F380916502680F52
:100370006093650280E0089581E008951092EF0295
:1003800081E08093EE021092C90261E082E10E9456
:10039000C30061E083E10E94C300E9EBF0E08081EB
:1003A0008E7F808380818D7F808388E48093B800F6
:1003B00085E48093BC000895CF93DF9391E0909300
:1003C00044028823B9F0C091B800D091BA0080915E
:1003D000BC008A7B8093BC0060E082E10E94C30085
:1003E00060E083E10E94C3000E94BE01D093BA0086
:1003F000C093B800DF91CF9108958F929F92AF92F2
:10040000BF92CF92DF92EF92FF920F931F93CF9301
:10041000DF93D0911803D13208F0D7C0182FC091C4
:1004200017030E9440016B017C018091EF02811152
:100430006BC082E08093EF021093EE028FEF809307
:10044000ED021092EC02D093EB02A7EFB2E0EBECDE
:10045000F2E080E0D81391C01092CA028091CA02E3
:10046000CC0FC82BC093CA028091C902813009F019
:1004700088C01092C9020E9440016B017C018091EA
:10048000CA028093BB008091F1029091F202A09188
:10049000F302B091F402892B8A2B8B2BA1F00E94DE
:1004A00040010091F1021091F2022091F30230918B
:1004B000F4026C197D098E099F0906171707280792
:1004C000390708F442C08091BC0083FDD8CF85EC89
:1004D0008093BC000E9440016B017C018091EF027F
:1004E000823009F450C08091ED028F3F09F46FC053
:1004F0008091ED02803209F46CC08091ED0280336E
:1005000009F469C084E026C08091F1029091F20262
:10051000A091F302B091F402892B8A2B8B2B09F462
:1005200084CF0E9440018090F1029090F202A0904E
:10053000F302B090F4026C197D098E099F098616AA
:100540009706A806B90608F070CF8091F0020E94C5
:10055000DC0185E01092F602109218031092F50269
:10056000DF91CF911F910F91FF90EF90DF90CF908F
:10057000BF90AF909F908F9008959D9191938F5FC2
:1005800069CF85EEA5CF8091F1029091F202A09102
:10059000F302B091F402892B8A2B8B2B09F49ECFA6
:1005A0000E9440010091F1021091F2022091F302A9
:1005B0003091F4026C197D098E099F0906171707FF
:1005C0002807390708F08ACFC0CF81E0C3CF80E089
:1005D000C1CF82E0BFCF83E0BDCFE0919A0280918E
:1005E0009902E81730F4F0E0E556FD4F808190E085
:1005F00008958FEF9FEF089590919A02809199024C
:100600002FEF3FEF981748F4E92FF0E0E556FD4F44
:10061000208130E09F5F90939A02C90108958091F4
:10062000990290919A02891B990B0895CF92DF92BB
:10063000EF92FF920F931F93CF93DF937C01CB0137
:100640008A012091F502222389F0EB016B01C40E8F
:10065000D51ECC15DD0569F06991D701ED91FC91AE
:100660000190F081E02DC7010995F3CF642F0E941E
:100670009701C801DF91CF911F910F91FF90EF90EB
:10068000DF90CF900895CF93DF931F92CDB7DEB761
:1006900069832091F5022223F9F02091180320327A
:1006A00058F021E030E0FC013383228390E080E0C9
:1006B0000F90DF91CF9108958091F602E82FF0E03E
:1006C000E950FD4F998190838F5F8093F60280936C
:1006D000180381E090E0ECCF61E0CE0101960E942A
:1006E0009701F7CFCF93DF93EC018B818823A1F0A3
:1006F000888191E09093F502809317031092F6029F
:100700001092180381E00E94FD0191E0811190E0B8
:10071000892FDF91CF91089510929A021092990239
:100720001092F602109218030E94BE0184E990E034
:10073000909398028093970285E990E090939602B7
:100740008093950281E08B83CE010E947203982FE3
:100750008111CECFDDCF20919302309194022817E2
:10076000390771F49091910280919202981741F0AB
:10077000E0919102F0E0EC5FFD4F808190E0089500
:100780008FEF9FEF0895EF92FF920F931F93CF93F8
:10079000DF93DC015C96ED90FC905D97E114F10431
:1007A00079F481E090E013969C938E93129790E0F9
:1007B00080E0DF91CF911F910F91FF90EF9008950E
:1007C0005196ED91FC91529750968C915097982F9D
:1007D00090950FB75E962C915E97122F127021FDA7
:1007E0006095F8942081112319F1282B2083E701CB
:1007F0002197F1F728E0462F50E0308160FF1AC0C2
:10080000382B3083E7012197F1F7BA017595679589
:10081000215089F7112381F08081892380830FBFC4
:100820005C968D919C910197F1F781E090E0C1CFAA
:100830002923DCCF3923E5CF9081892BEFCF20917D
:100840009302309194022817390761F48091920243
:100850002091910290E0805C9F4F821B91098F73E1
:100860009927089590E080E00895209193023091B7
:10087000940228173907B9F490919102809192025D
:10088000981789F0E0919102F0E0EC5FFD4F8081D4
:100890002091910230E02F5F3F4F2F733327209339
:1008A000910290E008958FEF9FEF0895089590E0F2
:1008B00080E00895CF93DF93EC0160E08E810E9489
:1008C000C30061E08E810E94C30060E08E810E94BF
:1008D000C3008BE891E00197F1F7DF91CF91089584
:1008E000CF92DF92EF92FF920F931F93CF93DF93FC
:1008F0006C017C0187E0E80EF11CD0E0C0E0062F1F
:1009000010E0B8010C2E02C0759567950A94E2F7C5
:100910006170F70181917F010E94C3002196C4306C
:10092000D10579F7C601DF91CF911F910F91FF900B
:10093000EF90DF90CF900C945A04CF92DF92EF9219
:10094000FF920F931F93CF93DF93EC01F62E642F4A
:100950008C810E94C3008D818F3F19F060E00E945E
:10096000C3000F2D10E08F8584FF25C06E0187E046
:10097000C80ED11CF12CE12CB8010E2C02C07595CB
:1009800067950A94E2F76170F60181916F010E9408
:10099000C300FFEFEF1AFF0A88E0E816F10461F7E1
:1009A000CE01DF91CF911F910F91FF90EF90DF90DB
:1009B000CF900C945A04B80184E0759567958A9598
:1009C000E1F7CE010E9470046F2DCE01DF91CF912F
:1009D0001F910F91FF90EF90DF90CF900C947004D7
:1009E00040E0682F84E493E00C949D04CF93DF9360
:1009F000813029F090915303986090935303809332
:100A000057031092580380E48093590380E1809348
:100A10005A0380E580935B0361E0809148030E9464
:100A20000F01809149038F3F19F061E00E940F018F
:100A300061E080914A030E940F01C4E4D3E09E016B
:100A4000245433408091530384FD0BC084E090E034
:100A500021962817390744F461E08E810E940F0126
:100A6000EECF88E090E0F4CF8BE39DE00197F1F7C3
:100A700060E0809148030E94C30060E080914A03D7
:100A80000E94C300809149038F3F19F060E00E94EB
:100A9000C3008091530384FD39C063E084E493E094
:100AA0000E947004CBE4D6E4CE010197F1F763E035
:100AB00084E493E00E9470042197F1F763E084E4FA
:100AC00093E00E94700483E592E00197F1F762E001
:100AD00084E493E00E9470048091530380620E943A
:100AE000F00484E0809354038CE00E94F00481E0E1
:100AF0000E94F0048BE39FE10197F1F782E080937D
:100B0000550386E0DF91CF910C94F00480620E943F
:100B1000F0048BE496E40197F1F78091530380622F
:100B20000E94F00483E592E00197F1F7809153036E
:100B300080620E94F004D0CF90915703891710F083
:100B40008FEF890FE82FF0E0EC5BFC4F8489806821
:100B50000C94F00441E00E949D0481E090E008952F
:100B600041E0682F84E493E00E949D0481E090E0DE
:100B70000895FB0101900020E9F73197AF01461B72
:100B8000570BDC01ED91FC910280F381E02D09947B
:100B90008F929F92AF92BF92CF92DF92EF92FF928D
:100BA0000F931F93CF93DF93CDB7DEB7A1970FB607
:100BB000F894DEBF0FBECDBF6C01990FEE08FF08A1
:100BC000F7FE41C08DE20E94B0058C012227332739
:100BD000A9012C193D094E095F0919A2CE01819680
:100BE0007C019AE0892E912CA12CB12CCA01B9016B
:100BF000A50194010E94280D605DF70162937F01B9
:100C0000211531054105510589F790E080E03097C5
:100C100029F0BF0184E493E00E94B905800F911F81
:100C2000A1960FB6F894DEBF0FBECDBFDF91CF9176
:100C30001F910F91FF90EF90DF90CF90BF90AF90FA
:100C40009F908F900895A701960119A28E010F5DC4
:100C50001F4F8AE0C82ED12CE12CF12CCA01B9011A
:100C6000A70196010E94280D605DF80162938F0133
:100C7000211531054105510589F790E080E0309755
:100C800079F2BF0184E493E00E94B905C9CFCF9304
:100C9000DF93BC0185E293E00E94B905EC016CE8AA
:100CA00071E085E293E00E94B9058C0F9D1FDF91F2
:100CB000CF91089585ED8093BC008091F1029091D1
:100CC000F202A091F302B091F4020796A11DB11DAA
:100CD00023E0B695A795979587952A95D1F720910A
:100CE000BC0024FD03C01092EF0208954091F10270
:100CF0005091F2026091F3027091F402452B462B61
:100D0000472B69F30097A105B10541F02AE22A9526
:100D1000F1F700C00197A109B109E1CF8091F0027C
:100D20000C94DC011F920F920FB60F9211242F9397
:100D30003F938F939F93AF93BF938091890290913C
:100D40008A02A0918B02B0918C023091880223E03C
:100D5000230F2D3758F50196A11DB11D2093880250
:100D60008093890290938A02A0938B02B0938C02A5
:100D700080918D0290918E02A0918F02B09190028D
:100D80000196A11DB11D80938D0290938E02A093B8
:100D90008F02B0939002BF91AF919F918F913F913D
:100DA0002F910F900FBE0F901F90189526E8230FDC
:100DB0000296A11DB11DD2CF1F920F920FB60F92B6
:100DC00011242F933F934F935F936F937F938F9350
:100DD0009F93AF93BF93EF93FF938091B900887F68
:100DE000803609F44AC0F0F5883209F4A7C018F536
:100DF000803109F49BC0B8F4882309F4F9C0883025
:100E000009F494C0FF91EF91BF91AF919F918F91A1
:100E10007F916F915F914F913F912F910F900FBEF6
:100E20000F901F901895883109F488C0803251F7CF
:100E30008093ED0214C0803409F49DC040F48033E7
:100E4000B9F38833F9F68093ED0285ECB0C08035B4
:100E500009F485C0883509F496C0883499F60E9453
:100E60005A06D0CF883909F48CC038F5883729F074
:100E700050F4883611F0803729F683E08093EF0232
:100E80001092870257C0883809F47BC0803919F066
:100E9000803809F0B7CF80918702803208F071C0A6
:100EA000E091870281E08E0F809387028091BB00E2
:100EB000F0E0E959FD4F80833DC0803B39F0E0F41C
:100EC000803A09F479C0883A09F09CCF84E0809395
:100ED000EF021092660210926502E0919702F09183
:100EE000980209958091650281110FC081E080937D
:100EF00065021092450209C0803C09F4A6CF883CE7
:100F000009F4A3CF883B09F07DCFE091660281E030
:100F10008E0F80936602F0E0EB5BFD4F8081809343
:100F2000BB00909166028091650229C08091CA023F
:100F30008093BB0085EC8093BC0064CF9091EC0261
:100F40008091EB02981758F5E091EC0281E08E0F4A
:100F50008093EC02F0E0E553FD4F8081E9CFE09112
:100F6000EC0281E08E0F8093EC028091BB00F0E0F8
:100F7000E553FD4F80839091EC028091EB0298172E
:100F8000C8F285E8D8CFE091EC0281E08E0F809323
:100F9000EC028091BB00F0E0E553FD4F808380912F
:100FA000EE0281115CCF81E08093C90284EA8093D4
:100FB000BC001092EF0226CF85EC8093BC0010920B
:100FC000EF0280918702803230F4E0918702F0E0F6
:100FD000E959FD4F10826091870270E0E09195021F
:100FE000F091960287E692E00995109287020ACF67
:100FF0001092ED0234CF1F920F920FB60F92112470
:101000002F933F934F935F936F937F938F939F9310
:10101000AF93BF93EF93FF93E0919302F09194020B
:10102000309749F0A685B7858585968D91FF14C0C8
:101030009C918923A1F4FF91EF91BF91AF919F9172
:101040008F917F916F915F914F913F912F910F9071
:101050000FBE0F901F9018959C91892361F7A3896B
:10106000B4899C918589809589238C9386899789F9
:101070000197F1F7608D718DA685B785558538E0AC
:1010800020E0CB010197F1F7822F90E095958795AD
:10109000282F4C91452309F02068315091F7868D17
:1010A00081FD20958091920290E001968F7399279F
:1010B00030919102381799F0A0919202B0E0AC5FA4
:1010C000BD4F2C9380939202828D938D0197F1F7FF
:1010D000A389B4898C919589892B8C93ACCF868D0B
:1010E0008160868FF1CFCF92DF92EF92FF921092C4
:1010F0001C0310921B0398EEC92E93E0D92EE12C0D
:10110000F12CC0921D03D0921E03E0921F03F092B7
:10111000200380E691E090931A03809319031092C4
:1011200047031092460384E891E09093450380932F
:1011300044038CE0809348038FEF809349038BE056
:1011400080934A0385E080934B0384E080934C03B3
:1011500083E080934D0382E080934E0310924F030F
:1011600010925003109251031092520310925303A5
:1011700081E00E94F6041092280310922703C09287
:101180002903D0922A03E0922B03F0922C0382E7EA
:1011900091E0909326038093250310923C031092D4
:1011A0003B0310923E0310923D03109240031092B5
:1011B0003F031092420310924103609143036E7FFC
:1011C0006D7F609343036695617081E068270E949C
:1011D000C30061E081E00E940F01EAEBF0E0E491DE
:1011E000E0933503E6EAF0E0E491F0E0EE0FFF1F54
:1011F000E556FF4F85919491909337038093360382
:1012000060E080E00E940F018091430381FD04C0F3
:1012100061E080E00E94C30010923103E9EBF0E04E
:10122000E491E0933203E5EAF0E0E491F0E0EE0FC0
:10123000FF1FEF56FF4F8591949190933403809355
:101240003303FF90EF90DF90CF900895CF93DF931B
:1012500000D000D000D01F92CDB7DEB7789484B50F
:10126000826084BD84B5816084BD85B5826085BDA2
:1012700085B5816085BD80916E00816080936E0030
:101280001092810080918100826080938100809122
:1012900081008160809381008091800081608093D3
:1012A00080008091B10084608093B1008091B00093
:1012B00081608093B00080917A00846080937A008E
:1012C00080917A00826080937A0080917A008160B8
:1012D00080937A0080917A00806880937A001092DF
:1012E000C10084E00E94F6046FE871E084E493E0BA
:1012F0000E94B90564E670E080E090E00E9465011C
:1013000081E00E94F0048BE39FE10197F1F760E038
:1013100080E00E940F0161E081E00E940F011092C5
:10132000400310923F0310923E0310923D0310922F
:101330003C0310923B038DE991E09093420380932C
:10134000410390913103963108F047C02DEB30E016
:1013500030933C0320933B032BE931E030933E0371
:1013600020933D032CE231E03093400320933F0370
:101370002091680084E0983048F031E09E3008F415
:1013800030E081E001C0880F3A95EAF7822B809324
:1013900068002DE630E0983050F02BE630E09E30CB
:1013A00030F02CE630E0963110F030E020E0309361
:1013B000390320933803292F30E0983008F093C088
:1013C00081E001C0880F9A95EAF780933A038091F3
:1013D0004103909142030197F1F780913F0390916F
:1013E0004003892B49F1E0919302F091940243E08C
:1013F000E532F40709F1309739F0A389B4899C915B
:101400008589809589238C93809143038E7F809377
:101410004303109292021092910285E293E090931E
:10142000940280939302E0913803F0913903808114
:1014300090913A03892B80838CEA91E00E944706C1
:101440008091C7029091C802009711F00E94EC0DA4
:1014500086E090E00E94500D8C0188E6D8018C93C4
:1014600089E193E012969C938E93119713961C92A8
:10147000139780E290E015969C938E9314971093A7
:10148000C8020093C70210929A0210929902109219
:10149000F602109218030E94BE0184E990E0909336
:1014A00098028093970285E990E09093960280934A
:1014B000950281E0F8018383C8010E94720397E0DE
:1014C000892E912C20E0222E20E0322E8111D5C1D0
:1014D00081ED91E00E9447066AE070E080E090E0D4
:1014E0000E946501F9CF9E3040F42850310981E017
:1014F00001C0880F2A95EAF768CF2E503109F7CF3F
:101500008091F1029091F202A091F302B091F40265
:10151000892B8A2B8B2B09F4F1C10E944001209169
:10152000F1023091F2024091F3025091F4026419F9
:10153000750986099709261737074807590708F0DC
:10154000DDC18091F0020E94DC01B12C10929A0260
:10155000B0929902B016110609F04AC0AA24A394C9
:10156000B12CAC0EBD1EAE0CBF1C3501C5018619D9
:10157000970980179107A8F5D60111968D919C9136
:10158000DC01ED91FC910284F385E02D0995F501D4
:1015900081935F01EBCF85EE8093BC000EC28091FA
:1015A000F1029091F202A091F302B091F402892B22
:1015B0008A2B8B2B09F405C20E9440012091F10275
:1015C0003091F2024091F3025091F40264197509CE
:1015D00086099709261737074807590708F0F1C108
:1015E000B0CFE00EF11EF7E0EF16F10408F476C17B
:1015F00089819A815B81252F30E074E035952795AC
:101600007A95E1F7322F330F330F422F431B440FEC
:10161000450F0D81202F30E0E4E035952795EA95C0
:10162000E1F7322F330F330F231B220F200F3E81A0
:10163000632F70E0F4E075956795FA95E1F7562F02
:10164000550F550FA62EA51AAA0CA30E3F81632F86
:1016500070E0A4E075956795AA95E1F7562F550FB0
:10166000550FB62EB51ABB0CB30EEB2CF12C022F76
:1016700010E0493100F5292F30E064E035952795D9
:101680006A95E1F7322F330F330F231B220F290FF7
:101690002D3388F4382F3F77832F90E054E09595D1
:1016A00087955A95E1F7982F990F990F891B880F05
:1016B000830F8D33D8F08091540190915501892B7F
:1016C00041F083EE91E00E9447061092550110927E
:1016D00054011092C6021092C5021092C4021092D8
:1016E000C3021092C2021092C10220C050E0509377
:1016F000C6024093C50230E03093C4022093C30277
:1017000090E09093C2028093C102C7018053984F2A
:101710009093C0028093BF028A2D90E09093BE0206
:101720008093BD021093BC020093BB0280E00E9434
:101730009C0562EF71E084E493E00E94B90581E0CA
:101740000E949C058091BB029091BC020E94C8053A
:1017500060E072E084E493E00E94B905C090BD02AD
:10176000D090BE024AE0C416D1041CF480E30E946B
:10177000B005C6010E94C80560E072E084E493E011
:101780000E94B9058091BF029091C0020E94C805D5
:1017900082E00E949C05E6E8F0E081E08A1530F4E2
:1017A0009491090F111D8F5F3196F8CF52E05A15B1
:1017B00028F48B2D837011F40F5F1F4FC701039620
:1017C0009695879596958795ADE6B1E0EA9E90014E
:1017D000EB9E300DFA9E300D11242B5F3F4F820F90
:1017E000931F800F911FB4010E94140D2CE0289FBD
:1017F000B001299F700D112460507F4F84E493E065
:101800000E94B90583E00E949C050091C5021091D9
:10181000C6020A3011051CF480E30E94B005C8011D
:101820000E94C80562E072E084E493E00E94B9057A
:101830000091C3021091C4020A3011051CF480E328
:101840000E94B005C8010E94C80562E072E084E40D
:1018500093E00E94B9050091C1021091C2020A30C2
:1018600011051CF480E30E94B005C8010E94C80560
:101870002114310411F00E9400001982C090C702A7
:10188000D090C802D60114968D919C911597892B02
:1018900009F4AECE11968D919C9112972C9131E066
:1018A0003093F502209317031092F602109218035A
:1018B000DC01ED91FC910280F381E02D41E050E0EC
:1018C000BE016F5F7F4F0995019709F091CE80E0CF
:1018D0000E94FD0181118CCEF12CE12CF601848156
:1018E000958184010E191F098017910708F48C0156
:1018F000D601AC900E9440012B013C018091EF0287
:101900008111FECDB02EB0E2B01710F480E2B82EF7
:10191000E1E0E093EF0221E0C401801B910BE816A7
:10192000F90608F420E02093EE02FFEFF093ED02B9
:101930001092EC028FEF8B0D8093EB0241E040930D
:10194000CA028091CA02AA0CA82AA092CA02809157
:10195000C902813009F01FCE1092C9020E944001D5
:101960002B013C018091CA028093BB008091F1025F
:101970009091F202A091F302B091F402892B8A2B8C
:101980008B2BA1F00E9440012091F1023091F202D4
:101990004091F3025091F402641975098609970980
:1019A000261737074807590708F4CBCD8091BC00AC
:1019B00083FDD8CF55EC5093BC000E9440012B0111
:1019C0003C018091EF02813009F4E9CD8091EC0275
:1019D0008B1510F4B090EC02ABECB2E0EBE9F2E066
:1019E00080E08B1509F4B2CD9D9191938F5FF9CF73
:1019F00082E791E0909326038093250380919302E0
:101A0000909194028552934071F4E0913803F091E3
:101A10003903908180913A038095892380831092C5
:101A20009402109293020895AA1BBB1B51E107C0B8
:101A3000AA1FBB1FA617B70710F0A61BB70B881F5E
:101A4000991F5A95A9F780959095BC01CD010895ED
:101A5000A1E21A2EAA1BBB1BFD010DC0AA1FBB1FB2
:101A6000EE1FFF1FA217B307E407F50720F0A21B24
:101A7000B30BE40BF50B661F771F881F991F1A9491
:101A800069F760957095809590959B01AC01BD01BB
:101A9000CF010895EE0FFF1F0590F491E02D0994FA
:101AA0000F931F93CF93DF938230910510F482E060
:101AB00090E0E0915E03F0915F0330E020E0B0E061
:101AC000A0E0309799F42115310509F44AC0281B8C
:101AD000390B24303105D8F58A819B816115710558
:101AE00089F1FB0193838283FE0111C04081518102
:101AF0000281138148175907E0F04817590799F4F4
:101B0000109761F012960C93129713961C933296CD
:101B1000CF01DF91CF911F910F91089500935E0344
:101B200010935F03F4CF2115310551F0421753078D
:101B300038F0A901DB019A01BD01DF01F801C1CF35
:101B4000EF01F9CF90935F0380935E03CDCFFE0149
:101B5000E20FF31F81939193225031093983288337
:101B6000D7CF20915C0330915D03232B41F420916A
:101B700058013091590130935D0320935C0320910B
:101B80005601309157012115310541F42DB73EB76B
:101B900040915A0150915B01241B350BE0915C038D
:101BA000F0915D03E217F307A0F42E1B3F0B2817FB
:101BB000390778F0AC014E5F5F4F2417350748F0C6
:101BC0004E0F5F1F50935D0340935C03819391938D
:101BD0009FCFF0E0E0E09CCFCF93DF930097E9F058
:101BE000FC01329713821282A0915E03B0915F03D1
:101BF000ED0130E020E01097A1F420813181820FC7
:101C0000931F20915C0330915D032817390709F079
:101C100061C0F0935D03E0935C03DF91CF91089581
:101C2000EA01CE17DF07E8F54A815B819E01411585
:101C30005105B1F7E901FB83EA8349915991C40F3A
:101C4000D51FEC17FD0761F4808191810296840F06
:101C5000951FE90199838883828193819B838A837D
:101C6000F0E0E0E012968D919C9113970097B9F502
:101C70002D913C911197CD010296820F931F2091D7
:101C80005C0330915D032817390739F6309751F519
:101C900010925F0310925E03B0935D03A0935C0308
:101CA000BCCFD383C28340815181840F951FC81755
:101CB000D90761F44E5F5F4F88819981480F591FA2
:101CC000518340838A819B819383828321153105CF
:101CD00009F0B0CFF0935F03E0935E039ECFFD0168
:101CE000DC01C0CF13821282D7CF10E0C8E6D0E06B
:101CF00004C0FE010E944A0D2196C936D107C9F7DA
:041D0000F894FFCF85
:101D040053756E6461790000000000004D6F6E64CD
:101D14006179000000000000547565736461790006
:101D2400000000005765646E65736461790000000B
:101D340054687572736461790000000046726964C6
:101D44006179000000000000536174757264617968
:101D5400000000000100000060038000000000009B
:101D640043031603570493000F03FC02ED02000023
:101D74000000C3039600570493001F043504AB030B
:101D840000000000AA059600570456040D0A0052EC
:101D940065616C2054496D6520636C6F636B2075BD
:101DA40073696E6720445331333037000A2E2E2E68
:101DB4002E2E2E2E2E2E2E2E2E2E4C4344204469B3
:101DC40073706C61792E2E2E2E2E2E2E2E2E2E2EEC
:101DD40000436F756C646E27742066696E642052CC
:101DE40054430053657420436C6F636B2054696DD6
:101DF400650044617465204461792054696D65000F
:041E04002D003A0073
:00000001FF
